{
  "_format": "hh-sol-artifact-1",
  "contractName": "TokenExchange",
  "sourceName": "contracts/exchange.sol",
  "abi": [
    {
      "inputs": [],
      "stateMutability": "nonpayable",
      "type": "constructor"
    },
    {
      "anonymous": false,
      "inputs": [
        {
          "indexed": true,
          "internalType": "address",
          "name": "previousOwner",
          "type": "address"
        },
        {
          "indexed": true,
          "internalType": "address",
          "name": "newOwner",
          "type": "address"
        }
      ],
      "name": "OwnershipTransferred",
      "type": "event"
    },
    {
      "inputs": [
        {
          "internalType": "uint256",
          "name": "max_exchange_rate",
          "type": "uint256"
        },
        {
          "internalType": "uint256",
          "name": "min_exchange_rate",
          "type": "uint256"
        }
      ],
      "name": "addLiquidity",
      "outputs": [],
      "stateMutability": "payable",
      "type": "function"
    },
    {
      "inputs": [
        {
          "internalType": "uint256",
          "name": "amountTokens",
          "type": "uint256"
        }
      ],
      "name": "createPool",
      "outputs": [],
      "stateMutability": "payable",
      "type": "function"
    },
    {
      "inputs": [],
      "name": "getSwapFee",
      "outputs": [
        {
          "internalType": "uint256",
          "name": "",
          "type": "uint256"
        },
        {
          "internalType": "uint256",
          "name": "",
          "type": "uint256"
        }
      ],
      "stateMutability": "view",
      "type": "function"
    },
    {
      "inputs": [],
      "name": "owner",
      "outputs": [
        {
          "internalType": "address",
          "name": "",
          "type": "address"
        }
      ],
      "stateMutability": "view",
      "type": "function"
    },
    {
      "inputs": [
        {
          "internalType": "uint256",
          "name": "max_exchange_rate",
          "type": "uint256"
        },
        {
          "internalType": "uint256",
          "name": "min_exchange_rate",
          "type": "uint256"
        }
      ],
      "name": "removeAllLiquidity",
      "outputs": [],
      "stateMutability": "payable",
      "type": "function"
    },
    {
      "inputs": [
        {
          "internalType": "uint256",
          "name": "amountETHs",
          "type": "uint256"
        },
        {
          "internalType": "uint256",
          "name": "max_exchange_rate",
          "type": "uint256"
        },
        {
          "internalType": "uint256",
          "name": "min_exchange_rate",
          "type": "uint256"
        }
      ],
      "name": "removeLiquidity",
      "outputs": [],
      "stateMutability": "payable",
      "type": "function"
    },
    {
      "inputs": [],
      "name": "renounceOwnership",
      "outputs": [],
      "stateMutability": "nonpayable",
      "type": "function"
    },
    {
      "inputs": [],
      "name": "reward",
      "outputs": [
        {
          "internalType": "contract Reward",
          "name": "",
          "type": "address"
        }
      ],
      "stateMutability": "view",
      "type": "function"
    },
    {
      "inputs": [
        {
          "internalType": "uint256",
          "name": "max_exchange_rate",
          "type": "uint256"
        }
      ],
      "name": "swapETHForTokens",
      "outputs": [],
      "stateMutability": "payable",
      "type": "function"
    },
    {
      "inputs": [
        {
          "internalType": "uint256",
          "name": "amountTokens",
          "type": "uint256"
        },
        {
          "internalType": "uint256",
          "name": "max_exchange_rate",
          "type": "uint256"
        }
      ],
      "name": "swapTokensForETH",
      "outputs": [],
      "stateMutability": "payable",
      "type": "function"
    },
    {
      "inputs": [],
      "name": "token",
      "outputs": [
        {
          "internalType": "contract Token",
          "name": "",
          "type": "address"
        }
      ],
      "stateMutability": "view",
      "type": "function"
    },
    {
      "inputs": [
        {
          "internalType": "address",
          "name": "newOwner",
          "type": "address"
        }
      ],
      "name": "transferOwnership",
      "outputs": [],
      "stateMutability": "nonpayable",
      "type": "function"
    }
  ],
  "bytecode": "0x6080604052735fbdb2315678afecb367f032d93f642f64180aa3600160006101000a81548173ffffffffffffffffffffffffffffffffffffffff021916908373ffffffffffffffffffffffffffffffffffffffff160217905550600160009054906101000a900473ffffffffffffffffffffffffffffffffffffffff16600260006101000a81548173ffffffffffffffffffffffffffffffffffffffff021916908373ffffffffffffffffffffffffffffffffffffffff16021790555073e7f1725e7734ce288f8367e1bb143e90bb3f0512600360006101000a81548173ffffffffffffffffffffffffffffffffffffffff021916908373ffffffffffffffffffffffffffffffffffffffff160217905550600360009054906101000a900473ffffffffffffffffffffffffffffffffffffffff16600460006101000a81548173ffffffffffffffffffffffffffffffffffffffff021916908373ffffffffffffffffffffffffffffffffffffffff160217905550600060055560006006556003600b556064600c553480156200019557600080fd5b50620001b6620001aa620001bc60201b60201c565b620001c460201b60201c565b62000288565b600033905090565b60008060009054906101000a900473ffffffffffffffffffffffffffffffffffffffff169050816000806101000a81548173ffffffffffffffffffffffffffffffffffffffff021916908373ffffffffffffffffffffffffffffffffffffffff1602179055508173ffffffffffffffffffffffffffffffffffffffff168173ffffffffffffffffffffffffffffffffffffffff167f8be0079c531659141344cd1fd0a4f28419497f9722a3daafe3b4186f6b6457e060405160405180910390a35050565b6146e580620002986000396000f3fe6080604052600436106100a75760003560e01c80638da5cb5b116100645780638da5cb5b1461015e5780639cd441da14610189578063a22280a6146101a5578063d4cadf68146101c1578063f2fde38b146101ed578063fc0c546a14610216576100a7565b8063228cb733146100ac5780632eab2841146100d757806358ad6de4146100f3578063715018a61461010f5780638259e6a014610126578063857620e114610142575b600080fd5b3480156100b857600080fd5b506100c1610241565b6040516100ce91906136dd565b60405180910390f35b6100f160048036038101906100ec9190613733565b610267565b005b61010d60048036038101906101089190613760565b610866565b005b34801561011b57600080fd5b50610124611520565b005b610140600480360381019061013b9190613733565b611534565b005b61015c600480360381019061015791906137a0565b611895565b005b34801561016a57600080fd5b506101736124ef565b6040516101809190613814565b60405180910390f35b6101a3600480360381019061019e9190613760565b612518565b005b6101bf60048036038101906101ba9190613760565b612cc9565b005b3480156101cd57600080fd5b506101d66132c5565b6040516101e492919061383e565b60405180910390f35b3480156101f957600080fd5b50610214600480360381019061020f9190613893565b6132d6565b005b34801561022257600080fd5b5061022b613359565b60405161023891906138f3565b60405180910390f35b600460009054906101000a900473ffffffffffffffffffffffffffffffffffffffff1681565b6000349050600081116102af576040517f08c379a00000000000000000000000000000000000000000000000000000000081526004016102a69061396b565b60405180910390fd5b60006064600b54836102c191906139ba565b6102cb9190613a2b565b905080826102d99190613a5c565b91506000600360009054906101000a900473ffffffffffffffffffffffffffffffffffffffff1673ffffffffffffffffffffffffffffffffffffffff168260405161032390613ac1565b60006040518083038185875af1925050503d8060008114610360576040519150601f19603f3d011682016040523d82523d6000602084013e610365565b606091505b50509050806103a9576040517f08c379a00000000000000000000000000000000000000000000000000000000081526004016103a090613b22565b60405180910390fd5b6103be8360065461337f90919063ffffffff16565b60068190555060006103dd600654600d5461339590919063ffffffff16565b905060006103f6826005546133ab90919063ffffffff16565b905061040f600654600d5461339590919063ffffffff16565b600581905550600086600d5461042591906139ba565b905060008287600d5461043891906139ba565b6104429190613a2b565b905081811115610487576040517f08c379a000000000000000000000000000000000000000000000000000000000815260040161047e90613b8e565b60405180910390fd5b6001600654116104cc576040517f08c379a00000000000000000000000000000000000000000000000000000000081526004016104c390613bfa565b60405180910390fd5b600160055411610511576040517f08c379a000000000000000000000000000000000000000000000000000000000815260040161050890613c66565b60405180910390fd5b60008311610554576040517f08c379a000000000000000000000000000000000000000000000000000000000815260040161054b90613cd2565b60405180910390fd5b600260009054906101000a900473ffffffffffffffffffffffffffffffffffffffff1673ffffffffffffffffffffffffffffffffffffffff1663095ea7b333856040518363ffffffff1660e01b81526004016105b1929190613cf2565b6020604051808303816000875af11580156105d0573d6000803e3d6000fd5b505050506040513d601f19601f820116820180604052508101906105f49190613d53565b50600260009054906101000a900473ffffffffffffffffffffffffffffffffffffffff1673ffffffffffffffffffffffffffffffffffffffff1663095ea7b330856040518363ffffffff1660e01b8152600401610652929190613cf2565b6020604051808303816000875af1158015610671573d6000803e3d6000fd5b505050506040513d601f19601f820116820180604052508101906106959190613d53565b50600260009054906101000a900473ffffffffffffffffffffffffffffffffffffffff1673ffffffffffffffffffffffffffffffffffffffff166323b872dd3033866040518463ffffffff1660e01b81526004016106f593929190613d80565b6020604051808303816000875af1158015610714573d6000803e3d6000fd5b505050506040513d601f19601f820116820180604052508101906107389190613d53565b50600654471461077d576040517f08c379a000000000000000000000000000000000000000000000000000000000815260040161077490613e03565b60405180910390fd5b600554600260009054906101000a900473ffffffffffffffffffffffffffffffffffffffff1673ffffffffffffffffffffffffffffffffffffffff166370a08231306040518263ffffffff1660e01b81526004016107db9190613814565b602060405180830381865afa1580156107f8573d6000803e3d6000fd5b505050506040513d601f19601f8201168201806040525081019061081c9190613e38565b1461085c576040517f08c379a000000000000000000000000000000000000000000000000000000000815260040161085390613eb1565b60405180910390fd5b5050505050505050565b6000600b541115610c035760006064600860003373ffffffffffffffffffffffffffffffffffffffff1673ffffffffffffffffffffffffffffffffffffffff16815260200190815260200160002054600360009054906101000a900473ffffffffffffffffffffffffffffffffffffffff1673ffffffffffffffffffffffffffffffffffffffff16316108f991906139ba565b6109039190613a2b565b905060006064600860003373ffffffffffffffffffffffffffffffffffffffff1673ffffffffffffffffffffffffffffffffffffffff16815260200190815260200160002054600260009054906101000a900473ffffffffffffffffffffffffffffffffffffffff1673ffffffffffffffffffffffffffffffffffffffff166370a08231600360009054906101000a900473ffffffffffffffffffffffffffffffffffffffff166040518263ffffffff1660e01b81526004016109c69190613ef2565b602060405180830381865afa1580156109e3573d6000803e3d6000fd5b505050506040513d601f19601f82011682018060405250810190610a079190613e38565b610a1191906139ba565b610a1b9190613a2b565b9050600460009054906101000a900473ffffffffffffffffffffffffffffffffffffffff1673ffffffffffffffffffffffffffffffffffffffff1663e7c63b9733846040518363ffffffff1660e01b8152600401610a7a929190613cf2565b600060405180830381600087803b158015610a9457600080fd5b505af1158015610aa8573d6000803e3d6000fd5b50505050600460009054906101000a900473ffffffffffffffffffffffffffffffffffffffff1673ffffffffffffffffffffffffffffffffffffffff166374c861b330836040518363ffffffff1660e01b8152600401610b09929190613cf2565b600060405180830381600087803b158015610b2357600080fd5b505af1158015610b37573d6000803e3d6000fd5b50505050600260009054906101000a900473ffffffffffffffffffffffffffffffffffffffff1673ffffffffffffffffffffffffffffffffffffffff166323b872dd600360009054906101000a900473ffffffffffffffffffffffffffffffffffffffff1633846040518463ffffffff1660e01b8152600401610bbc93929190613f0d565b6020604051808303816000875af1158015610bdb573d6000803e3d6000fd5b505050506040513d601f19601f82011682018060405250810190610bff9190613d53565b5050505b6000600760003373ffffffffffffffffffffffffffffffffffffffff1673ffffffffffffffffffffffffffffffffffffffff168152602001908152602001600020549050600060065460055483610c5a91906139ba565b610c649190613a2b565b90506005548110610c8857610c8560016005546133ab90919063ffffffff16565b90505b600260009054906101000a900473ffffffffffffffffffffffffffffffffffffffff1673ffffffffffffffffffffffffffffffffffffffff1663095ea7b333836040518363ffffffff1660e01b8152600401610ce5929190613cf2565b6020604051808303816000875af1158015610d04573d6000803e3d6000fd5b505050506040513d601f19601f82011682018060405250810190610d289190613d53565b50600260009054906101000a900473ffffffffffffffffffffffffffffffffffffffff1673ffffffffffffffffffffffffffffffffffffffff1663095ea7b330836040518363ffffffff1660e01b8152600401610d86929190613cf2565b6020604051808303816000875af1158015610da5573d6000803e3d6000fd5b505050506040513d601f19601f82011682018060405250810190610dc99190613d53565b50600260009054906101000a900473ffffffffffffffffffffffffffffffffffffffff1673ffffffffffffffffffffffffffffffffffffffff166323b872dd3033846040518463ffffffff1660e01b8152600401610e2993929190613d80565b6020604051808303816000875af1158015610e48573d6000803e3d6000fd5b505050506040513d601f19601f82011682018060405250810190610e6c9190613d53565b506006548210610e8f57610e8c60016006546133ab90919063ffffffff16565b91505b610ea4826006546133ab90919063ffffffff16565b600681905550610ebf816005546133ab90919063ffffffff16565b60058190555060008183600d54610ed691906139ba565b610ee09190613a2b565b90506000610ef986600d546133c190919063ffffffff16565b90506000610f1286600d546133c190919063ffffffff16565b905081831115610f57576040517f08c379a0000000000000000000000000000000000000000000000000000000008152600401610f4e90613b8e565b60405180910390fd5b80831015610f9a576040517f08c379a0000000000000000000000000000000000000000000000000000000008152600401610f9190613b8e565b60405180910390fd5b84600760003373ffffffffffffffffffffffffffffffffffffffff1673ffffffffffffffffffffffffffffffffffffffff1681526020019081526020016000206000828254610fe99190613a5c565b92505081905550600060065411611035576040517f08c379a000000000000000000000000000000000000000000000000000000000815260040161102c90613bfa565b60405180910390fd5b60003373ffffffffffffffffffffffffffffffffffffffff168660405161105b90613ac1565b60006040518083038185875af1925050503d8060008114611098576040519150601f19603f3d011682016040523d82523d6000602084013e61109d565b606091505b50509050806110e1576040517f08c379a00000000000000000000000000000000000000000000000000000000081526004016110d890613b22565b60405180910390fd5b60004711611124576040517f08c379a000000000000000000000000000000000000000000000000000000000815260040161111b90613bfa565b60405180910390fd5b6000600260009054906101000a900473ffffffffffffffffffffffffffffffffffffffff1673ffffffffffffffffffffffffffffffffffffffff166370a08231306040518263ffffffff1660e01b81526004016111819190613814565b602060405180830381865afa15801561119e573d6000803e3d6000fd5b505050506040513d601f19601f820116820180604052508101906111c29190613e38565b11611202576040517f08c379a00000000000000000000000000000000000000000000000000000000081526004016111f990613f90565b60405180910390fd5b4760065414611246576040517f08c379a000000000000000000000000000000000000000000000000000000000815260040161123d90613bfa565b60405180910390fd5b600260009054906101000a900473ffffffffffffffffffffffffffffffffffffffff1673ffffffffffffffffffffffffffffffffffffffff166370a08231306040518263ffffffff1660e01b81526004016112a19190613814565b602060405180830381865afa1580156112be573d6000803e3d6000fd5b505050506040513d601f19601f820116820180604052508101906112e29190613e38565b60055414611325576040517f08c379a000000000000000000000000000000000000000000000000000000000815260040161131c90613ffc565b60405180910390fd5b600260009054906101000a900473ffffffffffffffffffffffffffffffffffffffff1673ffffffffffffffffffffffffffffffffffffffff166370a08231306040518263ffffffff1660e01b81526004016113809190613814565b602060405180830381865afa15801561139d573d6000803e3d6000fd5b505050506040513d601f19601f820116820180604052508101906113c19190613e38565b6064600960003373ffffffffffffffffffffffffffffffffffffffff1673ffffffffffffffffffffffffffffffffffffffff1681526020019081526020016000205461140d91906139ba565b6114179190613a2b565b600860003373ffffffffffffffffffffffffffffffffffffffff1673ffffffffffffffffffffffffffffffffffffffff1681526020019081526020016000208190555060005b600a805490508110156114f8573373ffffffffffffffffffffffffffffffffffffffff16600a82815481106114955761149461401c565b5b9060005260206000200160009054906101000a900473ffffffffffffffffffffffffffffffffffffffff1673ffffffffffffffffffffffffffffffffffffffff16036114e5576114e4816133d7565b5b80806114f09061404b565b91505061145d565b506115106005546006546133c190919063ffffffff16565b600d819055505050505050505050565b611528613514565b6115326000613592565b565b61153c613514565b600060055414611581576040517f08c379a0000000000000000000000000000000000000000000000000000000008152600401611578906140df565b60405180910390fd5b6000600654146115c6576040517f08c379a00000000000000000000000000000000000000000000000000000000081526004016115bd9061414b565b60405180910390fd5b60003411611609576040517f08c379a0000000000000000000000000000000000000000000000000000000008152600401611600906141b7565b60405180910390fd5b6000600260009054906101000a900473ffffffffffffffffffffffffffffffffffffffff1673ffffffffffffffffffffffffffffffffffffffff166370a08231336040518263ffffffff1660e01b81526004016116669190613814565b602060405180830381865afa158015611683573d6000803e3d6000fd5b505050506040513d601f19601f820116820180604052508101906116a79190613e38565b9050808211156116ec576040517f08c379a00000000000000000000000000000000000000000000000000000000081526004016116e390614249565b60405180910390fd5b6000821161172f576040517f08c379a000000000000000000000000000000000000000000000000000000000815260040161172690613cd2565b60405180910390fd5b600260009054906101000a900473ffffffffffffffffffffffffffffffffffffffff1673ffffffffffffffffffffffffffffffffffffffff166323b872dd3330856040518463ffffffff1660e01b815260040161178e93929190613d80565b6020604051808303816000875af11580156117ad573d6000803e3d6000fd5b505050506040513d601f19601f820116820180604052508101906117d19190613d53565b50600260009054906101000a900473ffffffffffffffffffffffffffffffffffffffff1673ffffffffffffffffffffffffffffffffffffffff166370a08231306040518263ffffffff1660e01b815260040161182d9190613814565b602060405180830381865afa15801561184a573d6000803e3d6000fd5b505050506040513d601f19601f8201168201806040525081019061186e9190613e38565b6005819055503460068190555060065460055461188b91906139ba565b600d819055505050565b600760003373ffffffffffffffffffffffffffffffffffffffff1673ffffffffffffffffffffffffffffffffffffffff16815260200190815260200160002054831115611917576040517f08c379a000000000000000000000000000000000000000000000000000000000815260040161190e906142b5565b60405180910390fd5b6000600b541115611cb45760006064600860003373ffffffffffffffffffffffffffffffffffffffff1673ffffffffffffffffffffffffffffffffffffffff16815260200190815260200160002054600360009054906101000a900473ffffffffffffffffffffffffffffffffffffffff1673ffffffffffffffffffffffffffffffffffffffff16316119aa91906139ba565b6119b49190613a2b565b905060006064600860003373ffffffffffffffffffffffffffffffffffffffff1673ffffffffffffffffffffffffffffffffffffffff16815260200190815260200160002054600260009054906101000a900473ffffffffffffffffffffffffffffffffffffffff1673ffffffffffffffffffffffffffffffffffffffff166370a08231600360009054906101000a900473ffffffffffffffffffffffffffffffffffffffff166040518263ffffffff1660e01b8152600401611a779190613ef2565b602060405180830381865afa158015611a94573d6000803e3d6000fd5b505050506040513d601f19601f82011682018060405250810190611ab89190613e38565b611ac291906139ba565b611acc9190613a2b565b9050600460009054906101000a900473ffffffffffffffffffffffffffffffffffffffff1673ffffffffffffffffffffffffffffffffffffffff1663e7c63b9733846040518363ffffffff1660e01b8152600401611b2b929190613cf2565b600060405180830381600087803b158015611b4557600080fd5b505af1158015611b59573d6000803e3d6000fd5b50505050600460009054906101000a900473ffffffffffffffffffffffffffffffffffffffff1673ffffffffffffffffffffffffffffffffffffffff166374c861b330836040518363ffffffff1660e01b8152600401611bba929190613cf2565b600060405180830381600087803b158015611bd457600080fd5b505af1158015611be8573d6000803e3d6000fd5b50505050600260009054906101000a900473ffffffffffffffffffffffffffffffffffffffff1673ffffffffffffffffffffffffffffffffffffffff166323b872dd600360009054906101000a900473ffffffffffffffffffffffffffffffffffffffff1633846040518463ffffffff1660e01b8152600401611c6d93929190613f0d565b6020604051808303816000875af1158015611c8c573d6000803e3d6000fd5b505050506040513d601f19601f82011682018060405250810190611cb09190613d53565b5050505b600060065460055485611cc791906139ba565b611cd19190613a2b565b9050600260009054906101000a900473ffffffffffffffffffffffffffffffffffffffff1673ffffffffffffffffffffffffffffffffffffffff1663095ea7b333836040518363ffffffff1660e01b8152600401611d30929190613cf2565b6020604051808303816000875af1158015611d4f573d6000803e3d6000fd5b505050506040513d601f19601f82011682018060405250810190611d739190613d53565b50600260009054906101000a900473ffffffffffffffffffffffffffffffffffffffff1673ffffffffffffffffffffffffffffffffffffffff1663095ea7b330836040518363ffffffff1660e01b8152600401611dd1929190613cf2565b6020604051808303816000875af1158015611df0573d6000803e3d6000fd5b505050506040513d601f19601f82011682018060405250810190611e149190613d53565b50600260009054906101000a900473ffffffffffffffffffffffffffffffffffffffff1673ffffffffffffffffffffffffffffffffffffffff166323b872dd3033846040518463ffffffff1660e01b8152600401611e7493929190613d80565b6020604051808303816000875af1158015611e93573d6000803e3d6000fd5b505050506040513d601f19601f82011682018060405250810190611eb79190613d53565b50611ecd846006546133ab90919063ffffffff16565b600681905550611ee8816005546133ab90919063ffffffff16565b600581905550600060065411611f33576040517f08c379a0000000000000000000000000000000000000000000000000000000008152600401611f2a90613bfa565b60405180910390fd5b600060055411611f78576040517f08c379a0000000000000000000000000000000000000000000000000000000008152600401611f6f90613ffc565b60405180910390fd5b60008185600d54611f8991906139ba565b611f939190613a2b565b90506000611fac85600d546133c190919063ffffffff16565b90506000611fc585600d546133c190919063ffffffff16565b90508183111561200a576040517f08c379a000000000000000000000000000000000000000000000000000000000815260040161200190613b8e565b60405180910390fd5b8083101561204d576040517f08c379a000000000000000000000000000000000000000000000000000000000815260040161204490613b8e565b60405180910390fd5b60003373ffffffffffffffffffffffffffffffffffffffff168860405161207390613ac1565b60006040518083038185875af1925050503d80600081146120b0576040519150601f19603f3d011682016040523d82523d6000602084013e6120b5565b606091505b50509050806120f9576040517f08c379a00000000000000000000000000000000000000000000000000000000081526004016120f090613b22565b60405180910390fd5b6000471161213c576040517f08c379a000000000000000000000000000000000000000000000000000000000815260040161213390614321565b60405180910390fd5b6000600260009054906101000a900473ffffffffffffffffffffffffffffffffffffffff1673ffffffffffffffffffffffffffffffffffffffff166370a08231306040518263ffffffff1660e01b81526004016121999190613814565b602060405180830381865afa1580156121b6573d6000803e3d6000fd5b505050506040513d601f19601f820116820180604052508101906121da9190613e38565b1161221a576040517f08c379a00000000000000000000000000000000000000000000000000000000081526004016122119061438d565b60405180910390fd5b87600760003373ffffffffffffffffffffffffffffffffffffffff1673ffffffffffffffffffffffffffffffffffffffff16815260200190815260200160002060008282546122699190613a5c565b9250508190555047600654146122b4576040517f08c379a00000000000000000000000000000000000000000000000000000000081526004016122ab90613bfa565b60405180910390fd5b600260009054906101000a900473ffffffffffffffffffffffffffffffffffffffff1673ffffffffffffffffffffffffffffffffffffffff166370a08231306040518263ffffffff1660e01b815260040161230f9190613814565b602060405180830381865afa15801561232c573d6000803e3d6000fd5b505050506040513d601f19601f820116820180604052508101906123509190613e38565b60055414612393576040517f08c379a000000000000000000000000000000000000000000000000000000000815260040161238a90613ffc565b60405180910390fd5b600260009054906101000a900473ffffffffffffffffffffffffffffffffffffffff1673ffffffffffffffffffffffffffffffffffffffff166370a08231306040518263ffffffff1660e01b81526004016123ee9190613814565b602060405180830381865afa15801561240b573d6000803e3d6000fd5b505050506040513d601f19601f8201168201806040525081019061242f9190613e38565b6064600960003373ffffffffffffffffffffffffffffffffffffffff1673ffffffffffffffffffffffffffffffffffffffff1681526020019081526020016000205461247b91906139ba565b6124859190613a2b565b600860003373ffffffffffffffffffffffffffffffffffffffff1673ffffffffffffffffffffffffffffffffffffffff168152602001908152602001600020819055506124df6005546006546133c190919063ffffffff16565b600d819055505050505050505050565b60008060009054906101000a900473ffffffffffffffffffffffffffffffffffffffff16905090565b6000349050600a339080600181540180825580915050600190039060005260206000200160009091909190916101000a81548173ffffffffffffffffffffffffffffffffffffffff021916908373ffffffffffffffffffffffffffffffffffffffff16021790555034600760003373ffffffffffffffffffffffffffffffffffffffff1673ffffffffffffffffffffffffffffffffffffffff16815260200190815260200160002060008282546125cf91906143ad565b925050819055506000600654600554836125e991906139ba565b6125f39190613a2b565b905060008183600d5461260691906139ba565b6126109190613a2b565b9050600061262986600d546133c190919063ffffffff16565b9050600061264286600d546133c190919063ffffffff16565b905081831115612687576040517f08c379a000000000000000000000000000000000000000000000000000000000815260040161267e90613b8e565b60405180910390fd5b808310156126ca576040517f08c379a00000000000000000000000000000000000000000000000000000000081526004016126c190613b8e565b60405180910390fd5b6000600260009054906101000a900473ffffffffffffffffffffffffffffffffffffffff1673ffffffffffffffffffffffffffffffffffffffff166370a08231336040518263ffffffff1660e01b81526004016127279190613814565b602060405180830381865afa158015612744573d6000803e3d6000fd5b505050506040513d601f19601f820116820180604052508101906127689190613e38565b9050808511156127ad576040517f08c379a00000000000000000000000000000000000000000000000000000000081526004016127a490614249565b60405180910390fd5b600085116127f0576040517f08c379a00000000000000000000000000000000000000000000000000000000081526004016127e790613cd2565b60405180910390fd5b600260009054906101000a900473ffffffffffffffffffffffffffffffffffffffff1673ffffffffffffffffffffffffffffffffffffffff166323b872dd3330886040518463ffffffff1660e01b815260040161284f93929190613d80565b6020604051808303816000875af115801561286e573d6000803e3d6000fd5b505050506040513d601f19601f820116820180604052508101906128929190613d53565b506128a88660065461337f90919063ffffffff16565b6006819055506128c38560055461337f90919063ffffffff16565b60058190555084600960003373ffffffffffffffffffffffffffffffffffffffff1673ffffffffffffffffffffffffffffffffffffffff168152602001908152602001600020600082825461291891906143ad565b92505081905550600260009054906101000a900473ffffffffffffffffffffffffffffffffffffffff1673ffffffffffffffffffffffffffffffffffffffff166370a08231306040518263ffffffff1660e01b815260040161297a9190613814565b602060405180830381865afa158015612997573d6000803e3d6000fd5b505050506040513d601f19601f820116820180604052508101906129bb9190613e38565b6064600960003373ffffffffffffffffffffffffffffffffffffffff1673ffffffffffffffffffffffffffffffffffffffff16815260200190815260200160002054612a0791906139ba565b612a119190613a2b565b600860003373ffffffffffffffffffffffffffffffffffffffff1673ffffffffffffffffffffffffffffffffffffffff1681526020019081526020016000208190555060005b600a80549050811015612b7e573373ffffffffffffffffffffffffffffffffffffffff16600a8281548110612a8f57612a8e61401c565b5b9060005260206000200160009054906101000a900473ffffffffffffffffffffffffffffffffffffffff1673ffffffffffffffffffffffffffffffffffffffff1614612b6b57600160086000600a8481548110612aef57612aee61401c565b5b9060005260206000200160009054906101000a900473ffffffffffffffffffffffffffffffffffffffff1673ffffffffffffffffffffffffffffffffffffffff1673ffffffffffffffffffffffffffffffffffffffff1681526020019081526020016000206000828254612b6391906143ad565b925050819055505b8080612b769061404b565b915050612a57565b504760065414612bc3576040517f08c379a0000000000000000000000000000000000000000000000000000000008152600401612bba90613bfa565b60405180910390fd5b600260009054906101000a900473ffffffffffffffffffffffffffffffffffffffff1673ffffffffffffffffffffffffffffffffffffffff166370a08231306040518263ffffffff1660e01b8152600401612c1e9190613814565b602060405180830381865afa158015612c3b573d6000803e3d6000fd5b505050506040513d601f19601f82011682018060405250810190612c5f9190613e38565b60055414612ca2576040517f08c379a0000000000000000000000000000000000000000000000000000000008152600401612c9990613ffc565b60405180910390fd5b612cb96005546006546133c190919063ffffffff16565b600d819055505050505050505050565b6000600260009054906101000a900473ffffffffffffffffffffffffffffffffffffffff1673ffffffffffffffffffffffffffffffffffffffff166370a08231336040518263ffffffff1660e01b8152600401612d269190613814565b602060405180830381865afa158015612d43573d6000803e3d6000fd5b505050506040513d601f19601f82011682018060405250810190612d679190613e38565b905080831115612dac576040517f08c379a0000000000000000000000000000000000000000000000000000000008152600401612da39061442d565b60405180910390fd5b60008311612def576040517f08c379a0000000000000000000000000000000000000000000000000000000008152600401612de690614499565b60405180910390fd5b60006064600b5485612e0191906139ba565b612e0b9190613a2b565b90508084612e199190613a5c565b9350600260009054906101000a900473ffffffffffffffffffffffffffffffffffffffff1673ffffffffffffffffffffffffffffffffffffffff166323b872dd33600360009054906101000a900473ffffffffffffffffffffffffffffffffffffffff16846040518463ffffffff1660e01b8152600401612e9c939291906144b9565b6020604051808303816000875af1158015612ebb573d6000803e3d6000fd5b505050506040513d601f19601f82011682018060405250810190612edf9190613d53565b50612ef58460055461337f90919063ffffffff16565b6005819055506000612f14600554600d5461339590919063ffffffff16565b90506000612f2d826006546133ab90919063ffffffff16565b9050612f46600554600d5461339590919063ffffffff16565b600681905550600085600d54612f5c91906139ba565b905060008288600d54612f6f91906139ba565b612f799190613a2b565b905081811115612fbe576040517f08c379a0000000000000000000000000000000000000000000000000000000008152600401612fb590613b8e565b60405180910390fd5b600160065411613003576040517f08c379a0000000000000000000000000000000000000000000000000000000008152600401612ffa90613bfa565b60405180910390fd5b600160055411613048576040517f08c379a000000000000000000000000000000000000000000000000000000000815260040161303f90613c66565b60405180910390fd5b600260009054906101000a900473ffffffffffffffffffffffffffffffffffffffff1673ffffffffffffffffffffffffffffffffffffffff166323b872dd33308b6040518463ffffffff1660e01b81526004016130a793929190613d80565b6020604051808303816000875af11580156130c6573d6000803e3d6000fd5b505050506040513d601f19601f820116820180604052508101906130ea9190613d53565b5060003373ffffffffffffffffffffffffffffffffffffffff168460405161311190613ac1565b60006040518083038185875af1925050503d806000811461314e576040519150601f19603f3d011682016040523d82523d6000602084013e613153565b606091505b5050905080613197576040517f08c379a000000000000000000000000000000000000000000000000000000000815260040161318e90613b22565b60405180910390fd5b60065447146131db576040517f08c379a00000000000000000000000000000000000000000000000000000000081526004016131d290613e03565b60405180910390fd5b600554600260009054906101000a900473ffffffffffffffffffffffffffffffffffffffff1673ffffffffffffffffffffffffffffffffffffffff166370a08231306040518263ffffffff1660e01b81526004016132399190613814565b602060405180830381865afa158015613256573d6000803e3d6000fd5b505050506040513d601f19601f8201168201806040525081019061327a9190613e38565b146132ba576040517f08c379a00000000000000000000000000000000000000000000000000000000081526004016132b190613eb1565b60405180910390fd5b505050505050505050565b600080600b54600c54915091509091565b6132de613514565b600073ffffffffffffffffffffffffffffffffffffffff168173ffffffffffffffffffffffffffffffffffffffff160361334d576040517f08c379a000000000000000000000000000000000000000000000000000000000815260040161334490614562565b60405180910390fd5b61335681613592565b50565b600260009054906101000a900473ffffffffffffffffffffffffffffffffffffffff1681565b6000818361338d91906143ad565b905092915050565b600081836133a39190613a2b565b905092915050565b600081836133b99190613a5c565b905092915050565b600081836133cf91906139ba565b905092915050565b600a80549050811061341e576040517f08c379a0000000000000000000000000000000000000000000000000000000008152600401613415906145f4565b60405180910390fd5b600a6001600a805490506134329190613a5c565b815481106134435761344261401c565b5b9060005260206000200160009054906101000a900473ffffffffffffffffffffffffffffffffffffffff16600a82815481106134825761348161401c565b5b9060005260206000200160006101000a81548173ffffffffffffffffffffffffffffffffffffffff021916908373ffffffffffffffffffffffffffffffffffffffff160217905550600a8054806134dc576134db614614565b5b6001900381819060005260206000200160006101000a81549073ffffffffffffffffffffffffffffffffffffffff0219169055905550565b61351c613656565b73ffffffffffffffffffffffffffffffffffffffff1661353a6124ef565b73ffffffffffffffffffffffffffffffffffffffff1614613590576040517f08c379a00000000000000000000000000000000000000000000000000000000081526004016135879061468f565b60405180910390fd5b565b60008060009054906101000a900473ffffffffffffffffffffffffffffffffffffffff169050816000806101000a81548173ffffffffffffffffffffffffffffffffffffffff021916908373ffffffffffffffffffffffffffffffffffffffff1602179055508173ffffffffffffffffffffffffffffffffffffffff168173ffffffffffffffffffffffffffffffffffffffff167f8be0079c531659141344cd1fd0a4f28419497f9722a3daafe3b4186f6b6457e060405160405180910390a35050565b600033905090565b600073ffffffffffffffffffffffffffffffffffffffff82169050919050565b6000819050919050565b60006136a361369e6136998461365e565b61367e565b61365e565b9050919050565b60006136b582613688565b9050919050565b60006136c7826136aa565b9050919050565b6136d7816136bc565b82525050565b60006020820190506136f260008301846136ce565b92915050565b600080fd5b6000819050919050565b613710816136fd565b811461371b57600080fd5b50565b60008135905061372d81613707565b92915050565b600060208284031215613749576137486136f8565b5b60006137578482850161371e565b91505092915050565b60008060408385031215613777576137766136f8565b5b60006137858582860161371e565b92505060206137968582860161371e565b9150509250929050565b6000806000606084860312156137b9576137b86136f8565b5b60006137c78682870161371e565b93505060206137d88682870161371e565b92505060406137e98682870161371e565b9150509250925092565b60006137fe8261365e565b9050919050565b61380e816137f3565b82525050565b60006020820190506138296000830184613805565b92915050565b613838816136fd565b82525050565b6000604082019050613853600083018561382f565b613860602083018461382f565b9392505050565b613870816137f3565b811461387b57600080fd5b50565b60008135905061388d81613867565b92915050565b6000602082840312156138a9576138a86136f8565b5b60006138b78482850161387e565b91505092915050565b60006138cb82613688565b9050919050565b60006138dd826138c0565b9050919050565b6138ed816138d2565b82525050565b600060208201905061390860008301846138e4565b92915050565b600082825260208201905092915050565b7f4e6565642045544820746f207377617000000000000000000000000000000000600082015250565b600061395560108361390e565b91506139608261391f565b602082019050919050565b6000602082019050818103600083015261398481613948565b9050919050565b7f4e487b7100000000000000000000000000000000000000000000000000000000600052601160045260246000fd5b60006139c5826136fd565b91506139d0836136fd565b92508282026139de816136fd565b915082820484148315176139f5576139f461398b565b5b5092915050565b7f4e487b7100000000000000000000000000000000000000000000000000000000600052601260045260246000fd5b6000613a36826136fd565b9150613a41836136fd565b925082613a5157613a506139fc565b5b828204905092915050565b6000613a67826136fd565b9150613a72836136fd565b9250828203905081811115613a8a57613a8961398b565b5b92915050565b600081905092915050565b50565b6000613aab600083613a90565b9150613ab682613a9b565b600082019050919050565b6000613acc82613a9e565b9150819050919050565b7f4661696c656420746f2073656e64204574686572000000000000000000000000600082015250565b6000613b0c60148361390e565b9150613b1782613ad6565b602082019050919050565b60006020820190508181036000830152613b3b81613aff565b9050919050565b7f65786368616e6765207261746520697320746f6f206869676800000000000000600082015250565b6000613b7860198361390e565b9150613b8382613b42565b602082019050919050565b60006020820190508181036000830152613ba781613b6b565b9050919050565b7f6e6f7420656e6f7567682045544820696e20706f6f6c00000000000000000000600082015250565b6000613be460168361390e565b9150613bef82613bae565b602082019050919050565b60006020820190508181036000830152613c1381613bd7565b9050919050565b7f206e6f7420656e6f75676820746f6b656e20696e20706f6f6c00000000000000600082015250565b6000613c5060198361390e565b9150613c5b82613c1a565b602082019050919050565b60006020820190508181036000830152613c7f81613c43565b9050919050565b7f4e65656420746f6b656e7320746f2063726561746520706f6f6c2e0000000000600082015250565b6000613cbc601b8361390e565b9150613cc782613c86565b602082019050919050565b60006020820190508181036000830152613ceb81613caf565b9050919050565b6000604082019050613d076000830185613805565b613d14602083018461382f565b9392505050565b60008115159050919050565b613d3081613d1b565b8114613d3b57600080fd5b50565b600081519050613d4d81613d27565b92915050565b600060208284031215613d6957613d686136f8565b5b6000613d7784828501613d3e565b91505092915050565b6000606082019050613d956000830186613805565b613da26020830185613805565b613daf604083018461382f565b949350505050565b7f4554482069736e27742073656e6420656e6f7567680000000000000000000000600082015250565b6000613ded60158361390e565b9150613df882613db7565b602082019050919050565b60006020820190508181036000830152613e1c81613de0565b9050919050565b600081519050613e3281613707565b92915050565b600060208284031215613e4e57613e4d6136f8565b5b6000613e5c84828501613e23565b91505092915050565b7f746f6b656e2069736e27742073656e6420656e6f756768000000000000000000600082015250565b6000613e9b60178361390e565b9150613ea682613e65565b602082019050919050565b60006020820190508181036000830152613eca81613e8e565b9050919050565b6000613edc826138c0565b9050919050565b613eec81613ed1565b82525050565b6000602082019050613f076000830184613ee3565b92915050565b6000606082019050613f226000830186613ee3565b613f2f6020830185613805565b613f3c604083018461382f565b949350505050565b7f6e6f7420656e6f75676820746f6b656e20696e7420706f6f6c00000000000000600082015250565b6000613f7a60198361390e565b9150613f8582613f44565b602082019050919050565b60006020820190508181036000830152613fa981613f6d565b9050919050565b7f6e6f7420656e6f75676820746f6b656e20696e20706f6f6c0000000000000000600082015250565b6000613fe660188361390e565b9150613ff182613fb0565b602082019050919050565b6000602082019050818103600083015261401581613fd9565b9050919050565b7f4e487b7100000000000000000000000000000000000000000000000000000000600052603260045260246000fd5b6000614056826136fd565b91507fffffffffffffffffffffffffffffffffffffffffffffffffffffffffffffffff82036140885761408761398b565b5b600182019050919050565b7f546f6b656e20726573657276657320776173206e6f7420300000000000000000600082015250565b60006140c960188361390e565b91506140d482614093565b602082019050919050565b600060208201905081810360008301526140f8816140bc565b9050919050565b7f45544820726573657276657320776173206e6f7420302e000000000000000000600082015250565b600061413560178361390e565b9150614140826140ff565b602082019050919050565b6000602082019050818103600083015261416481614128565b9050919050565b7f4e6565642065746820746f2063726561746520706f6f6c2e0000000000000000600082015250565b60006141a160188361390e565b91506141ac8261416b565b602082019050919050565b600060208201905081810360008301526141d081614194565b9050919050565b7f4e6f74206861766520656e6f75676820746f6b656e7320746f2063726561746560008201527f2074686520706f6f6c0000000000000000000000000000000000000000000000602082015250565b600061423360298361390e565b915061423e826141d7565b604082019050919050565b6000602082019050818103600083015261426281614226565b9050919050565b7f796f75206e6f74206f776e656420656e6f756768206c70000000000000000000600082015250565b600061429f60178361390e565b91506142aa82614269565b602082019050919050565b600060208201905081810360008301526142ce81614292565b9050919050565b7f6e6f7420656e6f75676820726571756972652045544820696e20706f6f6c0000600082015250565b600061430b601e8361390e565b9150614316826142d5565b602082019050919050565b6000602082019050818103600083015261433a816142fe565b9050919050565b7f6e6f7420656e6f756768207265717569726520746f6b656e20696e20706f6f6c600082015250565b600061437760208361390e565b915061438282614341565b602082019050919050565b600060208201905081810360008301526143a68161436a565b9050919050565b60006143b8826136fd565b91506143c3836136fd565b92508282019050808211156143db576143da61398b565b5b92915050565b7f4e6f74206861766520656e6f75676820746f6b656e7320746f20737761700000600082015250565b6000614417601e8361390e565b9150614422826143e1565b602082019050919050565b600060208201905081810360008301526144468161440a565b9050919050565b7f4e65656420746f6b656e7320746f20737761702e000000000000000000000000600082015250565b600061448360148361390e565b915061448e8261444d565b602082019050919050565b600060208201905081810360008301526144b281614476565b9050919050565b60006060820190506144ce6000830186613805565b6144db6020830185613ee3565b6144e8604083018461382f565b949350505050565b7f4f776e61626c653a206e6577206f776e657220697320746865207a65726f206160008201527f6464726573730000000000000000000000000000000000000000000000000000602082015250565b600061454c60268361390e565b9150614557826144f0565b604082019050919050565b6000602082019050818103600083015261457b8161453f565b9050919050565b7f73706563696669656420696e646578206973206c6172676572207468616e207460008201527f6865206e756d626572206f66206c707300000000000000000000000000000000602082015250565b60006145de60308361390e565b91506145e982614582565b604082019050919050565b6000602082019050818103600083015261460d816145d1565b9050919050565b7f4e487b7100000000000000000000000000000000000000000000000000000000600052603160045260246000fd5b7f4f776e61626c653a2063616c6c6572206973206e6f7420746865206f776e6572600082015250565b600061467960208361390e565b915061468482614643565b602082019050919050565b600060208201905081810360008301526146a88161466c565b905091905056fea2646970667358221220996841b4b1d6ab2f896bdd2bb5afb11a1a2c3ecae3b2b0a12144c3b15e64a32464736f6c63430008110033",
  "linkReferences": {},
  "deployedLinkReferences": {}
}