{
  "_format": "hh-sol-artifact-1",
  "contractName": "Reward",
  "sourceName": "contracts/rewardPool.sol",
  "abi": [
    {
      "stateMutability": "payable",
      "type": "fallback"
    },
    {
      "inputs": [],
      "name": "ETH_getBalance",
      "outputs": [
        {
          "internalType": "uint256",
          "name": "",
          "type": "uint256"
        }
      ],
      "stateMutability": "view",
      "type": "function"
    },
    {
      "inputs": [
        {
          "internalType": "address",
          "name": "_to",
          "type": "address"
        },
        {
          "internalType": "uint256",
          "name": "ETHreward",
          "type": "uint256"
        }
      ],
      "name": "ETH_return",
      "outputs": [],
      "stateMutability": "nonpayable",
      "type": "function"
    },
    {
      "inputs": [],
      "name": "Token_getBalance",
      "outputs": [
        {
          "internalType": "uint256",
          "name": "",
          "type": "uint256"
        }
      ],
      "stateMutability": "view",
      "type": "function"
    },
    {
      "inputs": [
        {
          "internalType": "address",
          "name": "dex",
          "type": "address"
        },
        {
          "internalType": "uint256",
          "name": "amount",
          "type": "uint256"
        }
      ],
      "name": "approveAddr",
      "outputs": [],
      "stateMutability": "nonpayable",
      "type": "function"
    },
    {
      "inputs": [],
      "name": "token",
      "outputs": [
        {
          "internalType": "contract Token",
          "name": "",
          "type": "address"
        }
      ],
      "stateMutability": "view",
      "type": "function"
    },
    {
      "stateMutability": "payable",
      "type": "receive"
    }
  ],
  "bytecode": "0x6080604052735fbdb2315678afecb367f032d93f642f64180aa36000806101000a81548173ffffffffffffffffffffffffffffffffffffffff021916908373ffffffffffffffffffffffffffffffffffffffff16021790555060008054906101000a900473ffffffffffffffffffffffffffffffffffffffff16600160006101000a81548173ffffffffffffffffffffffffffffffffffffffff021916908373ffffffffffffffffffffffffffffffffffffffff1602179055503480156100c557600080fd5b506106c1806100d56000396000f3fe60806040526004361061004e5760003560e01c806353ce0de314610057578063686e51c41461008257806374c861b3146100ad578063e7c63b97146100d6578063fc0c546a146100ff57610055565b3661005557005b005b34801561006357600080fd5b5061006c61012a565b604051610079919061036a565b60405180910390f35b34801561008e57600080fd5b50610097610132565b6040516100a4919061036a565b60405180910390f35b3480156100b957600080fd5b506100d460048036038101906100cf9190610414565b6101d5565b005b3480156100e257600080fd5b506100fd60048036038101906100f89190610414565b61027a565b005b34801561010b57600080fd5b5061011461032b565b60405161012191906104b3565b60405180910390f35b600047905090565b6000600160009054906101000a900473ffffffffffffffffffffffffffffffffffffffff1673ffffffffffffffffffffffffffffffffffffffff166370a08231306040518263ffffffff1660e01b815260040161018f91906104dd565b602060405180830381865afa1580156101ac573d6000803e3d6000fd5b505050506040513d601f19601f820116820180604052508101906101d0919061050d565b905090565b600160009054906101000a900473ffffffffffffffffffffffffffffffffffffffff1673ffffffffffffffffffffffffffffffffffffffff1663095ea7b383836040518363ffffffff1660e01b815260040161023292919061053a565b6020604051808303816000875af1158015610251573d6000803e3d6000fd5b505050506040513d601f19601f82011682018060405250810190610275919061059b565b505050565b60008273ffffffffffffffffffffffffffffffffffffffff16826040516102a0906105f9565b60006040518083038185875af1925050503d80600081146102dd576040519150601f19603f3d011682016040523d82523d6000602084013e6102e2565b606091505b5050905080610326576040517f08c379a000000000000000000000000000000000000000000000000000000000815260040161031d9061066b565b60405180910390fd5b505050565b600160009054906101000a900473ffffffffffffffffffffffffffffffffffffffff1681565b6000819050919050565b61036481610351565b82525050565b600060208201905061037f600083018461035b565b92915050565b600080fd5b600073ffffffffffffffffffffffffffffffffffffffff82169050919050565b60006103b58261038a565b9050919050565b6103c5816103aa565b81146103d057600080fd5b50565b6000813590506103e2816103bc565b92915050565b6103f181610351565b81146103fc57600080fd5b50565b60008135905061040e816103e8565b92915050565b6000806040838503121561042b5761042a610385565b5b6000610439858286016103d3565b925050602061044a858286016103ff565b9150509250929050565b6000819050919050565b600061047961047461046f8461038a565b610454565b61038a565b9050919050565b600061048b8261045e565b9050919050565b600061049d82610480565b9050919050565b6104ad81610492565b82525050565b60006020820190506104c860008301846104a4565b92915050565b6104d7816103aa565b82525050565b60006020820190506104f260008301846104ce565b92915050565b600081519050610507816103e8565b92915050565b60006020828403121561052357610522610385565b5b6000610531848285016104f8565b91505092915050565b600060408201905061054f60008301856104ce565b61055c602083018461035b565b9392505050565b60008115159050919050565b61057881610563565b811461058357600080fd5b50565b6000815190506105958161056f565b92915050565b6000602082840312156105b1576105b0610385565b5b60006105bf84828501610586565b91505092915050565b600081905092915050565b50565b60006105e36000836105c8565b91506105ee826105d3565b600082019050919050565b6000610604826105d6565b9150819050919050565b600082825260208201905092915050565b7f4661696c656420746f2073656e64204574686572000000000000000000000000600082015250565b600061065560148361060e565b91506106608261061f565b602082019050919050565b6000602082019050818103600083015261068481610648565b905091905056fea26469706673582212208113622fbc4dc707d2d701bc05ecd293ea3b4fca78679e7a82e3d62ed26038cd64736f6c63430008110033",
  "linkReferences": {},
  "deployedLinkReferences": {}
}